:020000040800F2
:1000000000040020411C0008111E0008111E0008F9
:10001000111E0008111E0008111E0008111E000804
:10002000111E0008111E0008111E0008411E0008C4
:10003000111E0008111E0008111E0008111F0008E3
:10004000111E000871310008111E000861320008FD
:10005000111E0008111E0008912F0008C12F000872
:10006000F12F000821300008513000080129000854
:10007000312900086129000891290008C1290008D8
:10008000F1290008212A0008111E0008111E00088D
:10009000111E0008111E0008111E00088130000802
:1000A000913E0008D13C0008111E0008013D0008E7
:1000B000713D0008913D0008B13D000891370008EE
:1000C000B1370008E137000801380008111E0008A8
:1000D000111E00082141000841410008614100084B
:1000E000F1300008A1310008D1310008111E0008CC
:1000F000F13D0008111E0008213E0008512A0008A9
:10010000111E0008111E0008D13D0008111E000834
:10011000111E0008111E0008111E0008111E000803
:10012000812A0008B12A0008E12A0008112B0008E2
:10013000412B0008111E000801320008111E0008A2
:10014000111E0008111E0008111E0008111E0008D3
:10015000712B0008A12B0008D12B00088141000859
:100160003138000851380008111E0008111E00081F
:1001700031320008111E0008111E0008111E00086F
:10018000111E0008111E0008111E0008111E000893
:10019000111E0008111E0008111E0008111E000883
:0C01A000111E0008111E0008111E0008AE
:1001B0002DE9F04FCDB002F08BFA01F019FF4FF4AA
:1001C00040624FF48053C4F20203C4F202024FF4BF
:1001D00000514FF400644FF480551183A7481C83ED
:1001E000A7491D8302F0ACFAA649A748A74EDFF83D
:1001F000B092DFF8B4B202F05BFB04F011FB6420B4
:1002000002F026F9012007F08BF80A2002F020F90D
:100210009F4804F05DFA05F05BFB00209D4B0090C9
:100220004FF4A87140229C4802F0FAF830AF04F075
:100230007FFCF3680797B24606F01AFCF368DBF818
:100240000030F268F268D11A1829F5D940F6200575
:10025000C2F2000541F27017DAF80C402878C2F2B9
:1002600000073C600028E7D040F62108C2F20008F1
:1002700098F80040DFF83482012C00F0C782022C8D
:1002800000F0F283032C40F0138141F2D932C2F224
:1002900000021578002DCFD040F62003C2F20003F3
:1002A000002704241F7088F8004002F0F1F941F2A1
:1002B0000061804641F2FC50C2F20001C2F200002F
:1002C00041F2AC5C41F29052C2F20002C2F2000C68
:1002D000096800681468DCF8005001F0A5F90021F5
:1002E000C4F27A4101F0ACFA01F072FC3D973E9500
:1002F0003F94CDF8F0803CAD40900FCD674CADF809
:100300000471ADF80671ADF80871ADF80A718DF899
:100310000C718DF80D710FC495E80F0007C42246CB
:10032000012722F81C3941F23C13C2F2000389F87C
:100330000570997989F8067081F0780080EA0015D7
:10034000EBB21C0984F0F60040EA032585EAC304F9
:1003500084EA070383EA0310C5B2240A84EA15136A
:1003600043EA052080EAC50585EA070484EA041308
:10037000D8B22D0A85EA101444EA002383EAC000AB
:1003800080F0180585EA0514E3B2000A80EA131527
:10039000CC1941F23C1745EA0320C2F200071825A8
:1003A00080EAC30389F80750FE201E2589F8020061
:1003B00089F8035089F80410BC71A9F8003011467F
:1003C000180A11F8015B364C6B4083EA0317FDB243
:1003D00080EA151040EA052383EAC507A9F80070F2
:1003E00052787A4082EA0215E8B23B0A83EA101793
:1003F00047EA002282EAC0034A1C04F126018A422D
:10040000A9F80030DBD183F0180585EA0510C7B2E2
:100410001B0A83EA171282EA072181EAC705E378FB
:100420002048AFB21FFA87FC9D1D4FEA1C28A4F894
:1004300000C084F82670A11C2A4684F82780069301
:1004400009F09EFB41F27C11C2F200014C194F559C
:10045000069B0D48134A84F8018003F1080102F05D
:1004600047FA41F26C1541F2D932C2F20002C2F2EF
:1004700000050020012710702F70DDE6C00E00205F
:10048000C09E000800080020F40F0020A00D0020EE
:10049000DC13002081440008881200203410002062
:1004A0002C1000207C110020701100202108002059
:1004B000042C7FF4C1AE41F26C13C2F200031A782F
:1004C000002A3FF4B9AE41F23C11C2F20001DDF85E
:1004D0001CC08D7985F0060080EA0017FCB2230964
:1004E00083F01F0242EA0421089581EAC40585F0E1
:1004F000010080EA0017FCB2290A00220023CDE99E
:10050000302381EA141242EA04250C23002085EAF4
:10051000C407ADF8C800ADF8CA30ADF8CC00ADF8EE
:10052000CE309CE80F0087F0010484EA0415ECB299
:100530003F0A87EA1415B04F45EA042587E80F0003
:1005400085EAC40181F01C0282EA0213DBB2080AC8
:1005500080EA131499F80C1099F80D2099F80E0000
:10056000049144EA032599F8101099F80F4003927A
:100570000A9099F8112099F81200099599F808C085
:1005800099F809E099F80A7099F80B500B940C91BE
:100590000D920E9099F8134099F815200F9499F840
:1005A00017401192139440F62004C2F20004002276
:1005B0002270099A99F8141099F81600109182EA9D
:1005C000C30383EA0C0C8CEA0C14E2B21B0A83EA24
:1005D000121444EA022383EAC20282EA0E0E8EEA71
:1005E0000E145FFA84FC130A83EA1C1242EA0C24FC
:1005F00084EACC035F4087EA0712D4B21B0A83EA7D
:10060000141747EA042282EAC404654085EA051308
:10061000DFB2220A82EA171444EA072585EAC703F3
:10062000049FDDF828E0DDF838C0129083EA070265
:1006300082EA0214E5B21B0A83EA151747EA05228B
:1006400082EAC504039D6D496D4884EA050383EA87
:100650000317FAB2240A84EA121545EA022383EA50
:10066000C20787EA0E0282EA0214E5B23B0A83EA75
:10067000151747EA05220B9CDDF848E082EAC5051C
:1006800085EA040383EA0317FAB22D0A85EA1214F5
:1006900044EA022383EAC2070C9A87EA020585EA44
:1006A0000514E2B23B0A83EA121747EA022585EAFB
:1006B000C2040D9A84EA020383EA0317FDB2240AF6
:1006C00084EA151242EA052383EAC50787EA0C0586
:1006D00085EA0514E2B23B0A83EA121747EA0225CB
:1006E0000F9CDDF820C085EAC20383EA040282EA97
:1006F0000217FDB21B0A83EA151444EA052282EAB6
:10070000C507109D87EA050383EA0314E2B23F0A96
:1007100087EA121545EA022383EAC204119A84EAA1
:10072000020787EA0715EBB2240A84EA131242EAA9
:10073000032787EAC30585EA0E0383EA0314E7B2B9
:100740002A0A82EA171545EA0723139C83EAC7079A
:1007500087EA040282EA0215EBB23F0A87EA131421
:1007600044EA032282EAC30585F0430383EA0317C0
:10077000FCB22A0A82EA141545EA042383EAC40576
:1007800001240CEB040E4FF01C0C89F807C04FF04D
:10079000FE0C89F802C04FF0100C89F803C0DDF898
:1007A00020C088F8004089F804C041F23C1CABB27C
:1007B000C2F2000C1F0A16228CF806E089F80540E8
:1007C00089F80640A9F8003089F8185089F819709E
:1007D00009F0D6F90A4A0B4895751821D77502F029
:1007E00087F840F622000849C2F200004FF00008E6
:1007F00081F8008004701FE5341000202E100020C6
:100800007C110020F40F00206C11002040F622071C
:10081000C2F200073B78002B3FF40EAD41F2A84036
:1008200040F62002C2F20002C2F2000000210227BC
:10083000006888F80070117000F086FB84A3D3E98B
:10084000002300F0D5FB00F09BFE41F25053C2F2B2
:10085000000380461868DAF80C5000F075FB7CA3A2
:10086000D3E9002300F0C4FB00F08AFE41F2205CD3
:10087000C2F2000C0746DCF8000000F065FB74A330
:10088000D3E9002300F0B4FB00F07AFE01461BA878
:10089000059104F025F91B9A18A8089204F020F994
:1008A000199B15A8099304F01BF941F23C10C2F200
:1008B0000000359590F806E0CDF8D8808EF06A05F6
:1008C00085EA0511CAB2130983F0D50040EA022572
:1008D00085EAC20181F0010282EA0213DDB2080A50
:1008E00080EA151141EA052888EAC50C8CF001055B
:1008F000379785EA0518059FCDF828C05FFA88FC70
:10090000DDF82080389735AF0FCFCDF8E480DDF8E3
:100910002880179D4FEA18283B9588EA1C184E4DF1
:10092000CDF820800FC5089B099A43EA0C2080EA85
:10093000CC0C3A9297E807008CF01E0787EA071361
:10094000DBB24FEA1C2787EA131785E8070047EA5E
:10095000032181EAC3031E20FE271C2189F807001A
:1009600089F8027089F8031089F8054089F8064073
:1009700041F23C14C2F200040EF1010289F804E0D5
:10098000A271A9F80030103D2A46180A12F8017B1E
:10099000324C7B4083EA0311CFB280EA171040EA61
:1009A000072383EAC707A9F800706D787D4085EAC0
:1009B0000511C8B23B0A83EA101747EA002585EA09
:1009C000C003551C04F124029542A9F80030DBD184
:1009D00083F0270181EA0110C7B21B0A83EA1715C9
:1009E00085EA072282EAC701E3781D488FB21FFA21
:1009F00087FE9D1D4FEA1E28A4F800E084F82470AD
:100A0000A11C84F825802A46069309F0B9F841F222
:100A10007C1CC2F2000C0CEB05040CF80570069B64
:100A200010480F4A84F8018003F1080101F050FFDB
:100A300041F2D83740F62202C2F20002C2F20007A9
:100A40000020012110703970FFF7F6BBAFF3008072
:100A5000E79AD56194A94C40341000202C10002056
:100A60007C110020F40F002041F2D831C2F20001C5
:100A70000C78002C3FF4E0AB40F62003C2F20003F8
:100A8000032200242DA81C7088F8002004F018F818
:100A90002D9F2AA8069704F013F82B9D27A80595EB
:100AA00004F00EF824A8299D03F0FAFF21A8DDF830
:100AB000908003F0F5FF22991EA8089103F0F0FF43
:100AC00041F23C1CC2F2000C44949CF8067047951D
:100AD00087F0850080EA0014E3B21A0982F02E0143
:100AE00081EAC30080EA032484F0010383EA03124D
:100AF000D1B2200A80EA111484EAC103069ACDF823
:100B0000208183EA01240599459284F0010E4691E3
:100B10008EEA0E1C44AD0FCD5FFA8CFE240A84EAE7
:100B20001E1C209C8CEACE08DDF820C04A9488EA7E
:100B30000E2E4C4CCDF824C14FF00008CDF82C817E
:100B40000FC495E80F008EF01F0C8CEA0C185FFAAA
:100B500088F54FEA1E2E84E80F008EEA151C1F2030
:100B60004FF0010EFE2320224CEA052889F80700E9
:100B700007EB0E0C89F8023089F8032089F805E0AC
:100B800089F806E089F8047041F23C17C2F20007C8
:100B900088EAC50587F806C0103CA9F80050204631
:100BA000290A10F8013B304F5D4085EA0512D3B2A7
:100BB00081EA131141EA032585EAC303A9F800304D
:100BC00064785C4084EA0412D1B21D0A85EA1113EC
:100BD00043EA012484EAC105441C07F12800844249
:100BE000A9F80050DBD185F0F60282EA0211CBB2FF
:100BF0002D0A85EA131484EA032282EAC3018DB226
:100C0000ABB297F803E03B804FEA132887F82850EF
:100C1000B91C87F8298041F27C170EF10604C2F254
:100C2000000722461148CDF818E008F0A9FF3D550D
:100C3000DDF818C00E480D4A3B190CF1080183F885
:100C4000018001F055FE41F2D93541F2D832C2F2AD
:100C50000002C2F200050020012110702970FFF788
:100C6000EBBA00BF341000202C1000207C110020B3
:100C7000F40F0020AFF30080AFF30080AFF30080EB
:100C800081F0004102E000BF83F0004330B54FEA3D
:100C900041044FEA430594EA050F08BF90EA020FAA
:100CA0001FBF54EA000C55EA020C7FEA645C7FEA3D
:100CB000655C00F0E2804FEA5454D4EB5555B8BF60
:100CC0006D420CDD2C4480EA020281EA030382EAD1
:100CD000000083EA010180EA020281EA0303362D63
:100CE00088BF30BD11F0004F4FEA01314FF4801C36
:100CF0004CEA113102D0404261EB410113F0004F48
:100D00004FEA03334CEA133302D0524263EB4303FE
:100D100094EA050F00F0A780A4F10104D5F1200E9C
:100D20000DDB02FA0EFC22FA05F2801841F10001F7
:100D300003FA0EF2801843FA05F359410EE0A5F1CB
:100D400020050EF1200E012A03FA0EFC28BF4CF0FC
:100D5000020C43FA05F3C01851EBE37101F00045B2
:100D600007D54FF0000EDCF1000C7EEB00006EEBBF
:100D70000101B1F5801F1BD3B1F5001F0CD3490849
:100D80005FEA30004FEA3C0C04F101044FEA4452A0
:100D900012F5800F80F09A80BCF1004F08BF5FEA27
:100DA000500C50F1000041EB045141EA050130BD07
:100DB0005FEA4C0C404141EB010111F4801FA4F1AA
:100DC0000104E9D191F0000F04BF01460020B1FAFF
:100DD00081F308BF2033A3F10B03B3F120020CDA37
:100DE0000C3208DD02F1140CC2F10C0201FA0CF015
:100DF00021FA02F10CE002F11402D8BFC2F1200C7A
:100E000001FA02F120FA0CFCDCBF41EA0C0190402F
:100E1000E41AA2BF01EB0451294330BD6FEA040478
:100E20001F3C1CDA0C340EDC04F11404C4F1200263
:100E300020FA04F001FA02F340EA030021FA04F375
:100E400045EA030130BDC4F10C04C4F1200220FACC
:100E500002F001FA04F340EA0300294630BD21FA0A
:100E600004F0294630BD94F0000F83F4801306BFD0
:100E700081F480110134013D4EE77FEA645C18BFC4
:100E80007FEA655C29D094EA050F08BF90EA020F5B
:100E900005D054EA000C04BF1946104630BD91EA53
:100EA000030F1EBF0021002030BD5FEA545C05D156
:100EB0004000494128BF41F0004130BD14F5800495
:100EC0003CBF01F5801130BD01F0004545F0FE4109
:100ED00041F470014FF0000030BD7FEA645C1ABF3E
:100EE000194610467FEA655C1CBF0B46024650EA75
:100EF000013406BF52EA033591EA030F41F40021A1
:100F000030BD00BF90F0000F04BF0021704730B526
:100F10004FF4806404F132044FF000054FF00001FB
:100F200050E700BF90F0000F04BF0021704730B5BC
:100F30004FF4806404F1320410F0004548BF404291
:100F40004FF000013EE700BF42004FEAE2014FEAE6
:100F500031014FEA02701FBF12F07F4393F07F4FC1
:100F600081F06051704792F0000F14BF93F07F4FF3
:100F7000704730B54FF4607401F0004521F0004136
:100F800020E700BF50EA010208BF704730B54FF0BC
:100F900000050AE050EA010208BF704730B511F0C1
:100FA000004502D5404261EB41014FF4806404F1F9
:100FB00032045FEA915C3FF4DCAE4FF003025FEA7B
:100FC000DC0C18BF03325FEADC0C18BF033202EB03
:100FD000DC02C2F1200300FA03FC20FA02F001FA5D
:100FE00003FE40EA0E0021FA02F11444C1E600BFFC
:100FF00070B54FF0FF0C4CF4E06C1CEA11541DBFAF
:101000001CEA135594EA0C0F95EA0C0F00F0DEF879
:101010002C4481EA030621EA4C5123EA4C5350EA5E
:10102000013518BF52EA033541F4801143F48013AF
:1010300038D0A0FB02CE4FF00005E1FB02E506F040
:101040000042E0FB03E54FF00006E1FB03569CF095
:10105000000F18BF4EF0010EA4F1FF04B6F5007F9B
:1010600064F5407404D25FEA4E0E6D4146EB06060D
:1010700042EAC62141EA55514FEAC52040EA5E5096
:101080004FEACE2EB4F1FD0C88BFBCF5E06F1ED840
:10109000BEF1004F08BF5FEA500E50F1000041EB77
:1010A000045170BD06F0004646EA010140EA020024
:1010B00081EA0301B4EB5C04C2BFD4EB0C0541EA46
:1010C000045170BD41F480114FF0000E013C00F35B
:1010D000AB8014F1360FDEBF002001F0004170BD7F
:1010E000C4F10004203C35DA0C341BDC04F1140498
:1010F000C4F1200500FA05F320FA04F001FA05F224
:1011000040EA020001F0004221F0004110EBD370F0
:1011100021FA04F642EB06015EEA430E08BF20EA1C
:10112000D37070BDC4F10C04C4F1200500FA04F3BF
:1011300020FA05F001FA04F240EA020001F0004151
:1011400010EBD37041F100015EEA430E08BF20EAC4
:10115000D37070BDC4F1200500FA05F24EEA020E0C
:1011600020FA04F301FA05F243EA020321FA04F03B
:1011700001F0004121FA04F220EA020000EBD370F2
:101180005EEA430E08BF20EAD37070BD94F0000FF2
:101190000FD101F00046400041EB010111F4801F26
:1011A00008BF013CF7D041EA060195F0000F18BFD7
:1011B000704703F00046520043EB030313F4801F13
:1011C00008BF013DF7D043EA0603704794EA0C0FCD
:1011D0000CEA135518BF95EA0C0F0CD050EA4106E3
:1011E00018BF52EA4306D1D181EA030101F0004160
:1011F0004FF0000070BD50EA410606BF1046194688
:1012000052EA430619D094EA0C0F02D150EA013693
:1012100013D195EA0C0F05D152EA03361CBF1046D4
:1012200019460AD181EA030101F0004141F0FE4173
:1012300041F470014FF0000070BD41F0FE4141F4F7
:10124000780170BD70B54FF0FF0C4CF4E06C1CEAF7
:1012500011541DBF1CEA135594EA0C0F95EA0C0FAC
:1012600000F0A7F8A4EB050481EA030E52EA033567
:101270004FEA013100F088804FEA03334FF0805588
:1012800045EA131343EA12634FEA022245EA1115B5
:1012900045EA10654FEA00260EF000419D4208BF66
:1012A000964244F1FD0404F5407402D25B084FEA13
:1012B0003202B61A65EB03055B084FEA32024FF4BF
:1012C00080104FF4002CB6EB020E75EB030E22BF1C
:1012D000B61A754640EA0C005B084FEA3202B6EBDC
:1012E000020E75EB030E22BFB61A754640EA5C008B
:1012F0005B084FEA3202B6EB020E75EB030E22BF1B
:10130000B61A754640EA9C005B084FEA3202B6EB1B
:10131000020E75EB030E22BFB61A754640EADC00DA
:1013200055EA060E18D04FEA051545EA16754FEA3C
:1013300006164FEAC30343EA52734FEAC2025FEA5A
:101340001C1CC0D111F4801F0BD141EA00014FF0E9
:1013500000004FF0004CB6E711F4801F04BF0143BA
:101360000020B4F1FD0C88BFBCF5E06F3FF6AFAED6
:10137000B5EB030C04BFB6EB020C5FEA500C50F166
:10138000000041EB045170BD0EF0004E4EEA1131E9
:1013900014EB5C04C2BFD4EB0C0541EA045170BDF0
:1013A00041F480114FF0000E013C90E645EA060E34
:1013B0008DE60CEA135594EA0C0F08BF95EA0C0F62
:1013C0003FF43BAF94EA0C0F0AD150EA01347FF4AA
:1013D00034AF95EA0C0F7FF425AF104619462CE781
:1013E00095EA0C0F06D152EA03353FF4FDAE1046E4
:1013F000194622E750EA410618BF52EA43067FF435
:10140000C5AE50EA41047FF40DAF52EA43057FF4C4
:10141000EBAE12E70000000000000000000000003A
:101420004FF0FF3C06E000BF4FF0010C02E000BFB0
:101430004FF0010C4DF804CD4FEA410C7FEA6C5C93
:101440004FEA430C18BF7FEA6C5C1BD001B050EA36
:10145000410C0CBF52EA430C91EA030F02BF90EA21
:10146000020F0020704710F1000F91EA030F58BFE0
:10147000994208BF90422CBFD8176FEAE37040F042
:10148000010070474FEA410C7FEA6C5C02D150EAE0
:10149000013C07D14FEA430C7FEA6C5CD6D152EA9B
:1014A000033CD3D05DF8040B704700BF8446104660
:1014B00062468C461946634600E000BF01B5FFF75F
:1014C000B7FF002848BF10F1000F01BD4DF808ED2F
:1014D000FFF7F4FF0CBF012000205DF808FB00BF00
:1014E0004DF808EDFFF7EAFF34BF012000205DF85A
:1014F00008FB00BF4DF808EDFFF7E0FF94BF0120A7
:1015000000205DF808FB00BF4DF808EDFFF7CEFFA7
:1015100094BF012000205DF808FB00BF4DF808EDE6
:10152000FFF7C4FF34BF012000205DF808FB00BFB7
:101530004FEA410212F5001215D211D56FF47873FB
:10154000B3EB625212D94FEAC12343F0004343EA9E
:10155000505311F0004F23FA02F018BF4042704779
:101560004FF00000704750EA013005D111F0004003
:1015700008BF6FF0004070474FF00000704700BF99
:101580004FEA4102B2F1E04324BFB3F5001CDCF1A5
:10159000FE5C0DD901F0004C4FEAC0024CEA5070DD
:1015A000B2F1004F40EB830008BF20F0010070470C
:1015B00011F0804F21D113F13872BCBF01F000400F
:1015C000704741F480114FEA5252C2F11802C2F141
:1015D000200C10FA0CF320FA02F018BF40F00100C2
:1015E0004FEAC1234FEAD32303FA0CFC40EA0C0074
:1015F00023FA02F34FEA4303CCE77FEA625307D1B1
:1016000050EA01331EBF4FF0FE4040F440007047E7
:1016100001F0004040F0FE4040F40000704700BF81
:1016200080F0004002E000BF81F0004142001FBF97
:101630005FEA410392EA030F7FEA226C7FEA236CA0
:101640006AD04FEA1262D2EB1363C1BFD218414095
:1016500048404140B8BF5B42192B88BF704710F02B
:10166000004F40F4000020F07F4018BF404211F0CE
:10167000004F41F4000121F07F4118BF494292EA36
:10168000030F3FD0A2F1010241FA03FC10EB0C0062
:10169000C3F1200301FA03F100F0004302D54942EF
:1016A00060EB4000B0F5000F13D3B0F1807F06D39C
:1016B00040084FEA310102F10102FE2A51D2B1F194
:1016C000004F40EBC25008BF20F0010040EA030089
:1016D0007047490040EB000010F4000FA2F1010236
:1016E000EDD1B0FA80FCACF1080CB2EB0C0200FAC0
:1016F0000CF0AABF00EBC25052421843BCBFD0400E
:101700001843704792F0000F81F4000106BF80F487
:1017100000000132013BB5E74FEA41037FEA226C4A
:1017200018BF7FEA236C21D092EA030F04D092F015
:10173000000F08BF0846704790EA010F1CBF002049
:10174000704712F07F4F04D1400028BF40F00040A6
:10175000704712F100723CBF00F50000704700F0C6
:10176000004343F0FE4040F4000070477FEA2262ED
:1017700016BF08467FEA23630146420206BF5FEABE
:10178000412390EA010F40F4800070474FF00003BE
:1017900004E000BF10F0004348BF40425FEA000C85
:1017A00008BF704743F0964301464FF000001CE02D
:1017B00050EA010208BF70474FF000030AE000BF83
:1017C00050EA010208BF704711F0004302D54042C1
:1017D00061EB41015FEA010C02BF84460146002033
:1017E00043F0B64308BFA3F18053A3F50003BCFA4E
:1017F0008CF2083AA3EBC25310DB01FA02FC6344FB
:1018000000FA02FCC2F12002BCF1004F20FA02F201
:1018100043EB020008BF20F00100704702F12002F4
:1018200001FA02FCC2F1200250EA4C0021FA02F255
:1018300043EB020008BF20EADC70704700000000A4
:101840004FF0FF0C1CEAD0521EBF1CEAD15392EAA3
:101850000C0F93EA0C0F6FD01A4480EA010C40027F
:1018600018BF5FEA41211ED04FF0006343EA5010D9
:1018700043EA5111A0FB01310CF00040B1F5000F1B
:101880003EBF490041EAD3715B0040EA010062F1CA
:101890007F02FD2A1DD8B3F1004F40EBC25008BFB4
:1018A00020F00100704790F0000F0CF0004C08BFD2
:1018B00049024CEA502040EA51207F3AC2BFD2F19F
:1018C000FF0340EAC250704740F400004FF00003AD
:1018D000013A5DDC12F1190FDCBF00F000407047E7
:1018E000C2F10002410021FA02F1C2F1200200FA25
:1018F00002FC5FEA310040F1000053EA4C0308BFEC
:1019000020EADC70704792F0000F00F0004C02BF3C
:10191000400010F4000F013AF9D040EA0C0093F0B7
:10192000000F01F0004C02BF490011F4000F013B11
:10193000F9D041EA0C018FE70CEAD15392EA0C0F7F
:1019400018BF93EA0C0F0AD030F0004C18BF31F0EA
:10195000004CD8D180EA010000F00040704790F0C0
:10196000000F17BF90F0004F084691F0000F91F064
:10197000004F14D092EA0C0F01D142020FD193EA2A
:101980000C0F03D14B0218BF084608D180EA0100B2
:1019900000F0004040F0FE4040F40000704740F08E
:1019A000FE4040F4400070474FF0FF0C1CEAD0525C
:1019B0001EBF1CEAD15392EA0C0F93EA0C0F69D0B8
:1019C000A2EB030280EA010C49024FEA402037D023
:1019D0004FF0805343EA111143EA10130CF000401A
:1019E0008B4238BF5B0042F17D024FF4000C8B420A
:1019F00024BF5B1A40EA0C00B3EB510F24BFA3EBEA
:101A0000510340EA5C00B3EB910F24BFA3EB9103B9
:101A100040EA9C00B3EBD10F24BFA3EBD10340EA13
:101A2000DC001B0118BF5FEA1C1CE0D1FD2A3FF659
:101A300050AF8B4240EBC25008BF20F0010070470E
:101A40000CF0004C4CEA50207F32C2BFD2F1FF03B1
:101A500040EAC250704740F400004FF00003013AE2
:101A600037E792F0000F00F0004C02BF400010F486
:101A7000000F013AF9D040EA0C0093F0000F01F09A
:101A8000004C02BF490011F4000F013BF9D041EABC
:101A90000C0195E70CEAD15392EA0C0F08D14202EF
:101AA0007FF47DAF93EA0C0F7FF470AF084676E7C2
:101AB00093EA0C0F04D14B023FF44CAF08466EE79B
:101AC00030F0004C18BF31F0004CCAD130F0004269
:101AD0007FF45CAF31F000437FF43CAF5FE700BFC1
:101AE0004FF0FF3C06E000BF4FF0010C02E000BFEA
:101AF0004FF0010C4DF804CD4FEA40024FEA41038C
:101B00007FEA226C18BF7FEA236C11D001B052EA41
:101B1000530C18BF90EA010F58BFB2EB030088BF07
:101B2000C81738BF6FEAE17018BF40F00100704776
:101B30007FEA226C02D15FEA402C05D17FEA236C58
:101B4000E4D15FEA412CE1D05DF8040B704700BF9F
:101B5000844608466146FFE70FB5FFF7C9FF002836
:101B600048BF10F1000F0FBD4DF808EDFFF7F4FF6F
:101B70000CBF012000205DF808FB00BF4DF808ED08
:101B8000FFF7EAFF34BF012000205DF808FB00BF2B
:101B90004DF808EDFFF7E0FF94BF012000205DF84D
:101BA00008FB00BF4DF808EDFFF7D2FF94BF0120FE
:101BB00000205DF808FB00BF4DF808EDFFF7C8FFF7
:101BC00034BF012000205DF808FB00BF00000000CA
:101BD0004FEA4002B2F1FE4F0FD34FF09E03B3EB3A
:101BE00012620DD94FEA002343F0004310F0004F7A
:101BF00023FA02F018BF404270474FF000007047D0
:101C000012F1610F01D1420205D110F0004008BF6E
:101C10006FF0004070474FF0000070470000000078
:101C2000704700BFAFF30080AFF30080AFF30080D8
:101C3000FEE700BFAFF30080AFF30080AFF300809A
:101C400072B6644C84F30988022383F31488BFF3CB
:101C50006F8F61486149884218D2CA1C051D531B09
:101C600023F00302034610184FF0553183421960E8
:101C7000C2F380020AD01AB185422B46296005D0F2
:101C80001D1D5960083383426960F9D15448A04250
:101C900018D25449041D0A1B22F0030503462818D4
:101CA0004FF0553183421960C5F380020AD01AB152
:101CB00084422346216005D01D1D596008338342AC
:101CC0006960F9D102F0B4FB4749484881421BD210
:101CD000C61C0C1D321B464822F00302161D056867
:101CE0000423B3420D60C2F380020DD022B14568D7
:101CF0000823B342256007D01A1D1D5884585D5033
:101D00000833B3428C50F7D13A483B49884217D246
:101D1000CB1C041D1A1B22F00305034628180021C2
:101D200083421960C5F380020AD01AB18442234667
:101D3000216005D01D1D5960083383426960F9D1C7
:101D4000FFF76EFF2D4D2E498D421DD2CC1C2E1D4E
:101D5000A71BB808471C01242A6800EA040890471A
:101D6000BC4211D0B8F1000F05D002243368984767
:101D7000BC42354608D0696888470234A8682E1DE1
:101D800080470835BC42F6D1FEF712FA1D4D1E4AB7
:101D900095421DD2D41C2E1DA71BBB085F1C01241D
:101DA000296803EA04088847BC4211D0B8F1000F43
:101DB00005D0022430688047BC42354608D06A68A6
:101DC00090470234AB682E1D98470835BC42F6D1C7
:101DD000FFF72EFF00080020000000200004002074
:101DE000000400200308002000080020740C0020DC
:101DF00088A30008780C002004160020AC0100081D
:101E0000AC010008AC010008AC010008AFF3008091
:101E1000FEE700BFAFF30080AFF30080AFF30080B8
:101E200072B6FEE7AFF30080AFF30080AFF300803F
:101E300000F086FA00DF00BFAFF30080AFF3008050
:101E4000EFF30983203383F30988002383F3118898
:101E5000704700BFAFF30080AFF30080AFF30080A6
:101E600008B54FF46D43CEF200034FF44072C0F258
:101E7000FA520021996007201021DA6000F090F8F2
:101E80000A20202100F08CF80B208021BDE80840BA
:101E900000F086B8AFF30080AFF30080AFF30080AE
:101EA000202383F311884FF46D43CEF2000358686A
:101EB00010F4006319D0EFF309834FF0807243F8F8
:101EC000042CA3F1200181F309880E498A6909686D
:101ED000D07F8968926858B1914294BF0022012254
:101EE00062B1094A43F8082C704783F311887047A0
:101EF000914234BF00220122002AF2D1034843F864
:101F0000080C7047B00D0020311E0008341E000878
:101F100008B5202383F3118800F0A2F8002383F38F
:101F20001188BDE80840FFF7BBBF00BFAFF30080DA
:101F30002DE9F04FC1F80CD0D0F80CD0BDE8F08FEF
:101F4000002383F311882846A04700F0B1FA7047B8
:101F5000F0B44FF461438408CEF20003C03400F0C3
:101F6000030553F82470ED00FF26420906FA05F632
:101F700027EA060601FA05F500F01F0002F16007E6
:101F8000012101FA00F02E4343F8246043F82700B2
:101F900043F82200F0BC7047AFF30080AFF300803D
:101FA00082084FF46D43CEF20003063200F00300C6
:101FB00030B4C00053F82250FF2404FA00F425EA9C
:101FC000040401FA00F10C4343F8224030BC70478E
:101FD000024B034A98698261FEE700BFB00D002002
:101FE000D09C0008AFF30080AFF30080AFF3008017
:101FF00000B583B0FFF734FF00F0DAF800F060F8C6
:1020000000F00EFB00F054FB40F678404021C2F295
:10201000000000F0A5F940F6B051C2F20001012223
:1020200088610277002383F3118862B649F6E040A5
:102030008969C0F600008861009340F6C04041F60F
:10204000D173E021C0F60003C2F2000000F0E8F90D
:1020500003B000BDAFF30080AFF30080AFF30080AA
:1020600038B5134B9869C27F0AB1511EC177036A14
:10207000104C5A1C0262E0682268411CA242E160D6
:1020800014D09568013D956085B91368D1685C608E
:102090002360D560002383F31188106988472023CB
:1020A00083F31188226890680028EED038BD00BF05
:1020B000B00D0020A00D0020AFF30080AFF3008032
:1020C00040F6A053C2F200034FF0FF3200205B60E5
:1020D0001B609A60D8607047AFF30080AFF3008058
:1020E00070B40C4E03613468C260A568A94204D97B
:1020F0002468491BA5688D42FAD363680460B44222
:10210000436018606060816002D0A068411AA160DD
:1021100070BC7047A00D0020AFF30080AFF30080CB
:102120000368074A934203D09968826889189960C6
:1021300042681360036800215A60C160704700BFA5
:10214000A00D0020AFF30080AFF30080AFF300805C
:10215000202383F31188037F0D2B11D8DFE803F0D0
:1021600020101007100B101010101010100B416AE7
:102170008A68531C8B6090E80C001A6001684B6001
:102180004FF0FF3242628168074B002202771B68E2
:102190009A688A42FBD259680360416008605860BF
:1021A000002383F311887047B00D0020AFF3008047
:1021B00040F6B053C2F2000300225B601B609A60DD
:1021C0005B611B61704700BFAFF30080AFF300801D
:1021D00000228168054B02771B689A688A42FBD20D
:1021E000596803604160086058607047B00D002076
:1021F00040F6B053C2F2000310B499691A68087728
:1022000014201468C87701201077104663601C60A2
:102210009A6110BCFFF78CBEAFF30080AFF3008073
:1022200030B54B1C87B0054611D00B4C0B4AA36947
:1022300001A8FFF755FF2846FFF7DAFF049B13B10B
:1022400001A8FFF76DFFA069406A07B030BDFFF736
:10225000CFFF014CF7E700BFB00D0020512100086F
:10226000F0B4144F8568BE690446B068616200230B
:1022700085420CD82377394609688A689542FBD98C
:1022800048682160606004604C60F0BC7047337740
:10229000394609688A689042FBD9486831607060A5
:1022A00006604E600123204631462377BC61F0BCB6
:1022B000FFF73EBEB00D0020AFF30080AFF300800B
:1022C0000E4B18689969026830B453601A608C68C4
:1022D00098610125142300220577CB770A770346FE
:1022E00000E01B689A68A242FBD25A680B604A6001
:1022F0001160596030BCFFF71BBE00BFB00D00205D
:102300000D4B18689969026830B453608C681A6084
:1023100001259861002305770B77034600E01B68D1
:102320009A68A242FBD85A680B604A6011605960F3
:1023300030BCFFF7FDBD00BFB00D0020AFF3008043
:10234000034B9869C17F09B1FFF7DABFFFF7B8BF48
:10235000B00D0020AFF30080AFF30080AFF300803A
:10236000F0B440F6B054C2F2000400226569016482
:10237000046100F12C06816000F1280745614FF0EF
:10238000020C60610121142480F81CC04277C477DC
:10239000C263826302628177826128618762066319
:1023A000C662F0BC704700BFAFF30080AFF300809F
:1023B0002DE9F00340F6B055C2F20005A1F1240C5E
:1023C00000EB0C076969C76040F80C30069B7B6026
:1023D00041F64173C0F600033B62022303771423E6
:1023E0000026904600F1280900F12C02C377012352
:1023F0000561C0F808804161044668614677C0F80D
:102400004080C66386630662837786610861C0F890
:1024100028900263C262BDE8F0037047AFF300800A
:1024200010B51C4682B0202383F311882346049CF8
:102430000094FFF7BDFF00210446FFF711FF0023C2
:1024400083F31188204602B010BD00BFAFF30080B7
:1024500008B50146202383F311880620FFF7E0FE2C
:10246000002383F3118808BDAFF30080AFF3008031
:1024700038B50E4B9C692546606255F8280FA84276
:1024800006D00168A162FFF7A3FEA06AA842F8D1B6
:10249000607F830704D1636922691A6121694B61F6
:1024A0000E20BDE83840FFF7A3BE00BFB00D0020EE
:1024B000202383F31188FFF7DBBF00BFAFF3008059
:1024C0000023406000608360704700BFAFF300806E
:1024D000F8B52F4A836894690546002B51D0A1684E
:1024E0009868814206D91A7F9960042A31D0052A5A
:1024F0001CD092B128460068854203D08368A16849
:102500008B42F8D24268206062604460042014600C
:102510006562BDE8F840FFF76BBE93E80600116006
:10252000196818464A60FFF753FEE3E758681F68CA
:102530005E6A07601F68324678601268964202D071
:1025400090688842F9D251681A6059600B605360F4
:10255000D0E758681F685E6A07601F683246786077
:102560001268964212D090688842F9D251681A6077
:1025700059600B605360B368A1689A688A42B2D30D
:10258000B8E7E36B8460C360E063F8BD3246EDE713
:10259000B00D0020AFF30080AFF30080AFF30080F8
:1025A00008B5202383F31188FFF792FF002383F3FC
:1025B000118808BDAFF30080AFF30080AFF3008057
:1025C000154A38B59069202383F31188C46B2568B8
:1025D000E368A542C3631CD0016C4BB11A689A42F0
:1025E00003D09268914238BF1146DB68002BF5D1C9
:1025F0002B68EA6B8160236028465C600021A5603F
:10260000E260EC63FFF72CFE002383F31188204681
:1026100038BD0023A360F7E7B00D0020AFF30080C2
:1026200040F6D05240F6CC534CF200010648C2F2BC
:102630000002C2F20003C2F2010120F0070021F003
:1026400007011060196070470B160020AFF300807F
:10265000202383F31188094B09491A680968073058
:1026600020F00700891A88429ABF101818600022CB
:10267000002383F311881046704700BFD00D00205F
:10268000CC0D0020AFF30080AFF30080AFF30080EB
:1026900040F6CC5240F6D053C2F20002C2F2000320
:1026A00010681968401A7047AFF30080AFF30080DC
:1026B00040F6D853C2F2000342F251610022C0F644
:1026C000000103F1100019609A60DA60FFF7F8BEAC
:1026D00008B500F085FB00F0B3F849F6C050C0F62D
:1026E000000000F0DDFD00F00BF800F019F800F03C
:1026F0006FF800F0CDF8BDE8084001F0A1BE00BFC2
:1027000000F0C6BDAFF30080AFF30080AFF30080F0
:102710000123002103704160704700BFAFF30080C8
:1027200001F0AEB8AFF30080AFF30080AFF30080EC
:1027300001230021037041600C30FFF7C1BE00BFD0
:1027400010B52023044683F31188416001F0E0F8BE
:1027500002232370002383F3118810BDAFF30080A0
:1027600080687047AFF30080AFF30080AFF3008064
:1027700070B51E4684B00446202383F311880325D8
:102780000570099D00238360089B01950A9D0093B5
:102790000295334601F0ECF9431C06D0022121706A
:1027A000002383F3118804B070BD05222270F7E77F
:1027B0000C30FFF7F5BE00BFAFF30080AFF3008031
:1027C000FFF7FEBEAFF30080AFF30080AFF30080F1
:1027D00001F06EBBAFF30080AFF30080AFF3008079
:1027E0000123002103704160704700BFAFF30080F8
:1027F0004FF48053CEF2000359688160704700BFE8
:102800004FF48053CEF20003094A81685B6810B42C
:102810001468C2685B1A191B9142816005D802696D
:10282000914238BF016110BC7047C160FBE700BF37
:10283000F80D0020AFF30080AFF30080AFF300800D
:1028400010B540F6F85486B0C2F200044FF480533D
:102850000022CEF200034FF0FF3022600492059078
:10286000596842F6010242F2F17301A8C0F6000372
:10287000C0F60002019302920391FFF7C1FF039893
:10288000206006B010BD00BFAFF30080AFF3008042
:1028900001F086BCAFF30080AFF30080AFF300809F
:1028A000002301220270437083704360704700BFB1
:1028B00010B52023044683F31188416001F0C8FC61
:1028C00002232370002383F3118810BDAFF300802F
:1028D00010B52023044683F3118801F099FD0123EC
:1028E0006370002383F3118810BD00BFAFF3008035
:1028F00010B5044601F08CFD0123637010BD00BFCC
:1029000008B54FF4C043C4F20203064819680268D0
:1029100001F03D0199600AB140689047BDE8084068
:10292000FFF7BEBAFC0D0020AFF30080AFF30080CC
:102930004FF4C043C4F2020307481968826810B517
:102940008C0904F03D018C019C600AB1C06890477D
:10295000BDE81040FFF7A4BAFC0D0020AFF30080E3
:102960004FF4C043C4F2020307481968026910B566
:102970000C0C04F03D010C049C600AB140699047C6
:10298000BDE81040FFF78CBAFC0D0020AFF30080CB
:102990004FF4C043C4F2020307481968826910B5B6
:1029A0008C0D04F03D018C059C600AB1C069904714
:1029B000BDE81040FFF774BAFC0D0020AFF30080B3
:1029C00008B54FF4C043C4F2020306485968026ACE
:1029D00001F03D01D9600AB1406A9047BDE8084066
:1029E000FFF75EBAFC0D0020AFF30080AFF300806C
:1029F0004FF4C043C4F2020307485968826A10B515
:102A00008C0904F03D018C01DC600AB1C06A90477A
:102A1000BDE81040FFF744BAFC0D0020AFF3008082
:102A20004FF4C043C4F2020307485968026B10B563
:102A30000C0C04F03D010C04DC600AB1406B9047C3
:102A4000BDE81040FFF72CBAFC0D0020AFF300806A
:102A50004FF4C043C4F2020307485968826B10B5B3
:102A60008C0D04F03D018C05DC600AB1C06B904711
:102A7000BDE81040FFF714BAFC0D0020AFF3008052
:102A800008B54FF4C843C4F2020306481968026C43
:102A900001F03D0199600AB1406C9047BDE80840E3
:102AA000FFF7FEB9FC0D0020AFF30080AFF300800C
:102AB0004FF4C843C4F2020307481968826C10B58A
:102AC0008C0904F03D018C019C600AB1C06C9047F8
:102AD000BDE81040FFF7E4B9FC0D0020AFF3008023
:102AE0004FF4C843C4F2020307481968026D10B5D9
:102AF0000C0C04F03D010C049C600AB1406D904741
:102B0000BDE81040FFF7CCB9FC0D0020AFF300800A
:102B10004FF4C843C4F2020307481968826D10B528
:102B20008C0D04F03D018C059C600AB1C06D90478E
:102B3000BDE81040FFF7B4B9FC0D0020AFF30080F2
:102B400008B54FF4C843C4F2020306485968026E40
:102B500001F03D01D9600AB1406E9047BDE80840E0
:102B6000FFF79EB9FC0D0020AFF30080AFF30080AB
:102B70004FF4C843C4F2020307485968826E10B587
:102B80008C0904F03D018C01DC600AB1C06E9047F5
:102B9000BDE81040FFF784B9FC0D0020AFF30080C2
:102BA0004FF4C843C4F2020307485968026F10B5D6
:102BB0000C0C04F03D010C04DC600AB1406F90473E
:102BC000BDE81040FFF76CB9FC0D0020AFF30080AA
:102BD0004FF4C843C4F2020307485968826F10B526
:102BE0008C0D04F03D018C05DC600AB1C06F90478C
:102BF000BDE81040FFF754B9FC0D0020AFF3008092
:102C00002DE9F00F40F67C658AB0C2F2000546F26D
:102C100040400295783046F21045C4F20205A0F516
:102C200080600495C4F2020046F240450390C4F26D
:102C3000020546F228400695C4F2020046F27045AD
:102C40000590C4F2020546F258400195C4F2020014
:102C500046F2B8450790C4F2020546F2884009954D
:102C6000C4F20200029D089046F2100B002040F6CC
:102C7000FC5346F2280A46F2400946F2580846F24A
:102C8000700C46F2880746F2A006C2F200032860E4
:102C9000C4F2020B039DCBF80000C4F2020AC4F296
:102CA0000209C4F20208C4F2020CC4F20207C4F220
:102CB00002061860CAF800009860C9F800001861A0
:102CC000C8F800009861CCF800001862386098627B
:102CD000306018632860049D98632860059D18641F
:102CE0002860069D98642860079D186546F2104488
:102CF00028606034019D986530342860C4F2020475
:102D0000089D18664FF4C0414FF4C8422860C4F2D1
:102D100002019866C4F202022060099C18674FF015
:102D2000FF35206098678D60CD609560D5600AB0F2
:102D3000BDE8F00F704700BFAFF30080AFF3008035
:102D40002DE9F041244E447A3768012505FA04FC48
:102D50001CEA070F3AD1214D4CEA070705EBC408DE
:102D600017F0FF0F45F83420C8F80430376007D05B
:102D70004FF46053C4F202031C6B44F400161E634C
:102D800017F47F4F19D10468266826F01F052560C7
:102D9000276817F00105FBD1067A43683D2707FA3B
:102DA00006F61E6021232560636192B1807A0901D5
:102DB000FFF7CEF82846BDE8F0814FF46055C4F225
:102DC00002052F6B47F480032B63DCE72846BDE840
:102DD000F0811046BDE8F0817C0E0020FC0D002043
:102DE0004FF46053C4F2020370B400224FF0FF347A
:102DF00019691C611A6159695C615A611E6A4EF257
:102E0000100166F080561E62CEF200011A6249F28D
:102E10003F054EF6F0505E6A5C62CEF20000072479
:102E2000C0F202055A624D608A600C60C4684FF4BB
:102E30008051CEF2000144F08074C460086840F014
:102E400001000860186C4FF4E041C4F2000140F04A
:102E500080501864086840F480700860196F01F4AD
:102E60004070B0F5007F03D04FF4803119671A67C6
:102E70004FF4E043C4F200035A6822F40070586033
:102E800070BCFFF7BDBE00BFAFF30080AFF30080A2
:102E90004FF460514FF4E043C4F20201C4F2000366
:102EA0004FF080524FF440400A6418600B6843F0C2
:102EB00001020A6008684FF460538007C4F20203FD
:102EC000F8D5196801F0F90200211A6018469960D6
:102ED00082684FF4605312F00C0FC4F20203F7D172
:102EE000186840F480311960184602684FF4605346
:102EF0009203C4F20203F8D5596F41F001005867FC
:102F000019464A6F4FF460539007C4F20203F8D594
:102F100045F20840C0F24070586019684FF4E04232
:102F200041F080701860C4F2000253685904FCD567
:102F30004FF46051C4F202010A684FF460509201EC
:102F4000C4F20200F8D54FF47053C4F202034FF4F8
:102F50001441C3F6080140F2057281601A6083686B
:102F600043F002018160826802F00C014FF460536B
:102F70000829C4F20203F6D1586C40F480425A6426
:102F8000596E41F480405866704700BFAFF300802F
:102F900040F68060C2F2000008B54FF470534268FA
:102FA000C4F2010301215961536800219847BDE82B
:102FB0000840FEF775BF00BFAFF30080AFF300809D
:102FC00040F68060C2F2000008B54FF470534268CA
:102FD000C4F2010302215961D36801219847BDE879
:102FE0000840FEF75DBF00BFAFF30080AFF3008085
:102FF00040F68060C2F2000008B54FF4705342689A
:10300000C4F2010304215961536902219847BDE8C4
:103010000840FEF745BF00BFAFF30080AFF300806C
:1030200040F68060C2F2000008B54FF47053426869
:10303000C4F2010308215961D36903219847BDE80F
:103040000840FEF72DBF00BFAFF30080AFF3008054
:1030500040F68060C2F2000008B54FF47053426839
:10306000C4F2010310215961536A04219847BDE855
:103070000840FEF715BF00BFAFF30080AFF300803C
:103080004FF47053C4F2010310B55C6904F4787214
:103090005A61A30622D460061AD4210612D4E2058E
:1030A0000AD4A30504D510484168CB6C0921984780
:1030B000BDE81040FEF7F4BE0B48436808215A6C87
:1030C0009047EEE708484168CA6B07219047E6E75A
:1030D000054842680621536B9847DEE7024841687D
:1030E000CB6A05219847D6E7800E0020AFF3008019
:1030F0004FF47053C4F2010310B55C6904F47C42D0
:103100005A6162052AD4230522D4E0041AD4A1040A
:1031100012D462040AD4230404D5134842680F2150
:10312000D36F9847BDE81040FEF7BABE0E4841681D
:103130004B6F0E219847EEE70B4843680D21DA6E7E
:103140009047E6E7084841684A6E0C219047DEE761
:10315000054842680B21D36D9847D6E7024841687D
:103160004B6D0A219847CEE7800E0020AFF3008018
:1031700040F68060C2F2000008B54FF47053426818
:10318000C4F201034FF480315961D2F88430102128
:103190009847BDE80840FEF783BE00BFAFF300804C
:1031A00040F68060C2F2000008B54FF470534268E8
:1031B000C4F201034FF400315961D2F88C3011216F
:1031C0009847BDE80840FEF76BBE00BFAFF3008034
:1031D00040F68060C2F2000008B54FF470534268B8
:1031E000C4F201034FF480215961D2F894301221C6
:1031F0009847BDE80840FEF753BE00BFAFF300801C
:1032000040F68060C2F2000008B54FF47053426887
:10321000C4F201034FF400215961D2F89C3013210C
:103220009847BDE80840FEF73BBE00BFAFF3008003
:1032300040F68060C2F2000008B54FF47053426857
:10324000C4F201034FF480115961D2F8A430142163
:103250009847BDE80840FEF723BE00BFAFF30080EB
:1032600040F68060C2F2000008B54FF47053426827
:10327000C4F201034FF480015961D2F8B430162131
:103280009847BDE80840FEF70BBE00BFAFF30080D3
:1032900040F68060C2F20000FFF73ABAAFF3008058
:1032A0004FF46053C4F202031A6B6FEA52216FEAC3
:1032B00041221A63196D6FEA51226FEA42211965A2
:1032C00000234168C4F202034FF4806259608168B0
:1032D0009960C168D9600169596141691962816960
:1032E000596201681960016AC4F202024FF4006376
:1032F0005160416A9160816AD160C16A5161016B1C
:103300001162416B5162C1691160C4F20203C26B68
:103310005A60016C9960426CDA60816C5961C26CD0
:103320001A62016D5962816B4FF440621960816DC0
:10333000C4F202024FF480535160C16D9160016E7E
:10334000D160416E5161816E1162C16E5162416DF9
:103350001160C4F20203426F5A60816F9960C26FBC
:10336000DA60D0F880105961D0F884201A62D0F861
:1033700088105962016F4FF4A0521960D0F8901074
:10338000C4F202024FF4C0535160D0F8941091601F
:10339000D0F89810D160D0F89C105161D0F8A010EE
:1033A0001162D0F8A4105162D0F88C101160D0F8DE
:1033B000AC10C4F202034FF4E0525960D0F8B010E0
:1033C0009960D0F8B410D960D0F8B8105961D0F82D
:1033D000BC101962D0F8C0105962D0F8A810C4F21D
:1033E00002021960D0F8C8305360D0F8CC10916058
:1033F000D0F8D030D360D0F8D4105161D0F8D830A4
:103400001362D0F8DC105162D0F8C4104FF40053AE
:103410001160D0F8E420C4F202035A60D0F8E8103A
:103420009960D0F8EC20DA60D0F8F0105961D0F84B
:10343000F4201A62D0F8F8105962D0F8E000186051
:10344000704700BFAFF30080AFF30080AFF30080A0
:1034500030B4046B436B226800214FF400451D809B
:10346000198099809982116821F01F0313601568F3
:10347000E907FCD4C16A257A63680A683D2000FA2E
:1034800005F01860136823F01F0010601368DB0755
:10349000FCD40A7A48683D2101FA02F3036030BC8B
:1034A000704700BFAFF30080AFF30080AFF3008040
:1034B00038B50546202383F31188C4694CB1FFF762
:1034C000C7FF00234FF0FF31EB6120466162FEF73A
:1034D0007FFE002383F3118838BD00BFAFF3008067
:1034E00070B5056B2A68136823F01F041460166812
:1034F000F607FCD42E7AC46A6B6822683D2505FA6B
:1035000006F51D60136823F01F0515601368DD07BD
:10351000FCD4257A626801F480733D2404FA05F432
:103520009BB2146003B1012301F4007292B2836074
:1035300012B143F00203836001F4806292B272B16F
:10354000446BA28822F400721204120CA28022881A
:1035500092B242F4007243F004032280836001F4CB
:10356000006292B212B143F00803836001F480421A
:1035700092B212B143F02003836001F4805292B200
:1035800012B143F0100383600A0401D41BB970BD6B
:1035900043F040018160202383F31188C3693BB16C
:1035A00000226FF00101C26118465962FEF710FE59
:1035B000002383F3118870BDAFF30080AFF3008068
:1035C00038B5446B238BA58AADB2082245EA034186
:1035D00021F07F43C0F2030293426CD00ED98222C5
:1035E000C0F2070293424CD08421C0F207018B4203
:1035F00029D015F00A0F18BF238B38BD0122C0F265
:10360000030293424AD00221C0F203018B42F0D15F
:10361000A388C06A23F40072110400680B0CA38015
:10362000026842F001010160A3889AB242F480511D
:10363000A1804368012BDCD8208820F480631A0421
:10364000130C2380D5E7C36A1A685168002937D163
:10365000A38823F4007213041A0CA28023889AB260
:1036600042F400732380202383F31188C26922B1BE
:10367000C16110465162FEF7ABFD002383F3118850
:10368000B7E7A388006B23F400710B040268180CE1
:10369000A080116841F001031360AAE7038C190AA6
:1036A0000CD003F0010040F0F00301F0060243EA01
:1036B000020121829DE7038CC3F34703238298E72D
:1036C0002188028C8BB242F0010143F4A062018494
:1036D000228038BDAFF30080AFF30080AFF30080ED
:1036E00011F00C0F38B50546446B14D1296B0A68EC
:1036F000136823F01F0010601368DB07FCD40A7AFC
:1037000048683D2101FA02F30360A28890B240F4B8
:103710000071A18038BDFEF783FBE7E7AFF30080BF
:1037200011F00C0F38B50546446B2ED1E86A0268DB
:10373000136823F01F011160136813F00101FBD11E
:10374000027A43683D2000FA02F21A60A38823F44B
:1037500080500204130CA380208820F4806213049C
:10376000180C2080228893B243F40070208020231C
:1037700083F31188EA6922B1E96110465162FEF7CC
:1037800027FD002383F3118838BDFEF749FBCDE701
:1037900008B540F68860C2F20000FFF711FFBDE8EF
:1037A0000840FEF77DBB00BFAFF30080AFF30080A1
:1037B00008B540F68863C2F2000318465A6B918A36
:1037C00089B201F45F4383F47F4383F0FF03938264
:1037D000FFF786FEBDE80840FEF762BBAFF300804E
:1037E00008B540F6C060C2F20000FFF7E9FEBDE890
:1037F0000840FEF755BB00BFAFF30080AFF3008079
:1038000008B540F6C063C2F2000318465A6B918AAD
:1038100089B201F45F4383F47F4383F0FF03938213
:10382000FFF75EFEBDE80840FEF73ABBAFF300804D
:1038300008B540F6F860C2F20000FFF7C1FEBDE82F
:103840000840FEF72DBB00BFAFF30080AFF3008050
:1038500008B540F6F863C2F2000318465A6B918A25
:1038600089B201F45F4383F47F4383F0FF039382C3
:10387000FFF736FEBDE80840FEF712BBAFF300804D
:103880002DE9F04140F68867C2F20007384649F654
:10389000005540F6C066FEF74BFFC0F60005C2F2C9
:1038A00000064FF4A84305F148024FF00008C4F2A7
:1038B0000003304640F6F864C2F200047B63FD6208
:1038C0003A63C7F81C80FEF733FF4FF4B04105F1AF
:1038D000180705F15403C4F200012046C6F81C8005
:1038E0007163F7623363FEF723FF4FF4B840C4F20D
:1038F00000003035C4F81C806063E7622563BDE8D2
:10390000F08100BFAFF30080AFF30080AFF3008021
:10391000F8B50378044640F256428262012B40F229
:1039200016406062656B55D02B46E66A276B366899
:103930003868616805F11002B26000244FF4004756
:103940004FF4106682602F802C80AE809A88486881
:103950000F7A22F03F063204160C9E809E8848F2B1
:10396000A062B6B2C0F2010246F02A0690429E80E2
:1039700024DD4FF4D452C0F20602904208DC022F3C
:103980007BD0032F69D048F6FF700D221A8400E027
:103990002046988309781888022982B257D00329D3
:1039A00052D0012903D122F00A021004020C1A801D
:1039B0002B8898B240F001022A80F8BD4DF6806253
:1039C0004000C0F2802292FBF0F210052B22000D85
:1039D0001A84DEE760498C425DD0604EB44200F04C
:1039E0008A805F4FBC429FD14FF46056C4F20206FA
:1039F000E06A316A5B4A41F40007376200273762A8
:103A000005212346FFF79CF9574A206B23460521E1
:103A1000FFF796F9326C42F40003336448205021DA
:103A2000FEF796FA49205021FEF792FA606AA66ADC
:103A3000636B40F0C06146F0C06741F4403047F42A
:103A400040326062A26270E742F00A02AFE74FF6CE
:103A5000F771114041F00202A9E700EB80004DF63A
:103A6000806200EB8000C0F2802292FBF0F26FEAED
:103A700082406FEA904290B287E74DF6806200EB99
:103A80004000C0F2802292FBF0F26FEA42406FEAFF
:103A9000504290B279E74FF46056C4F20206E06AF1
:103AA000336A304A43F40017376200273762052132
:103AB0002346FFF745F923462B4A206B0521FFF7E4
:103AC0003FF9316C41F4001232641F205021FEF79F
:103AD0003FFA20205021FEF73BFA606AA66A636B2A
:103AE00040F0007746F0007247F4403142F4403035
:103AF0006162A06219E74FF46056C4F20206002723
:103B0000336AE06A174A43F4800131622346376220
:103B10000521FFF715F92346134A206B0521FFF70E
:103B20000FF9306C40F48002326421205021FEF7FE
:103B30000FFA22205021FEF70BFA666AA76A636B20
:103B400046F0606147F0606041F4403640F4403236
:103B50006662A262E9E600BF880E0020C00E002067
:103B6000F80E002021370008E1360008AFF300808E
:103B70002DE9F04687B08A46109D446B691C0646C5
:103B800091461F4605D001A82946334A3346FEF721
:103B9000A7FA002383F31188F16A326B0868126870
:103BA000716AB360B36A4FEA4A0AA6F820A01360AC
:103BB000C2F80C90576001600E9A0F99C260416084
:103BC00002E0002383F31188208B00F0020291B2FF
:103BD000202321B9208800F4007291B259B183F3F7
:103BE00011886A1CEDD004980028EAD14FF0FF300C
:103BF00007B0BDE8F08683F311886B1C1AD00499D6
:103C00000029F3D0A388154D98B240F40072A28029
:103C10002188AB6988B240F4807222800220F3616F
:103C2000FEF7E6FA049911B101A8FEF779FAAB693B
:103C3000586ADDE7A388094D98B240F40072A2806B
:103C40002188AB6988B240F4807222800220F3613F
:103C5000FEF7CEFAEBE700BFB1340008B00D00204C
:103C600038B503691A69DC681440A4B2E1B204F003
:103C70000202C94392B2054619610ABB04F004006E
:103C800082B2C2B904F0080082B27AB904F010001E
:103C900082B232B9E30703D56A6828469368984729
:103CA00038BD6B682846996A8847F3E76B682846F1
:103CB000196A8847EAE76B68284699698847E1E707
:103CC000436819698847D9E7AFF30080AFF30080F4
:103CD00040F63070C2F2000008B500234268C4F21A
:103CE00001036FF00101196193689847BDE808402E
:103CF000FEF7D6B8AFF30080AFF30080AFF30080DB
:103D00000023C4F2010310B51A69DC681440A4B2A0
:103D1000E1B204F00200C94382B21961002A1DD148
:103D200004F0040082B2A2B904F0080082B25AB9C9
:103D300004F01004A4B21CB10B484268936A98477F
:103D4000BDE81040FEF7ACB807484368196A8847D9
:103D5000EEE70548436899698847E5E70248436804
:103D600019698847DCE700BF300F0020AFF30080FF
:103D700008B540F64470C2F20000FFF771FFBDE8DD
:103D80000840FEF78DB800BFAFF30080AFF30080AE
:103D900008B540F65870C2F20000FFF761FFBDE8B9
:103DA0000840FEF77DB800BFAFF30080AFF300809E
:103DB00008B540F66C70C2F20000FFF751FFBDE895
:103DC0000840FEF76DB800BFAFF30080AFF300808E
:103DD00008B540F68070C2F20000FFF741FFBDE871
:103DE0000840FEF75DB800BFAFF30080AFF300807E
:103DF00040F69470C2F2000008B54FF48063426848
:103E0000C4F201036FF00101196193689847BDE89E
:103E10000840FEF745B800BFAFF30080AFF3008065
:103E20004FF48063C4F2010310B51A69DC681440D2
:103E3000A4B2E1B204F00200C94382B21961002ABF
:103E40001DD104F0040082B2A2B904F0080082B2CD
:103E50005AB904F01004A4B21CB10B484268936A2A
:103E60009847BDE81040FEF71BB807484368196A39
:103E70008847EEE70448436899698847E5E70248C0
:103E8000436819698847DCE7940F0020AFF300808E
:103E900008B540F6A870C2F20000FFF7E1FEBDE8E9
:103EA0000840FDF7FDBF00BFAFF30080AFF3008017
:103EB00070B540F63074C2F20004204640F64476F5
:103EC000FEF78EFCC2F20006002340F65875C4F2DD
:103ED00001033046C2F200052361FEF781FC40F683
:103EE0006C744FF0804128463161C2F20004FEF745
:103EF00077FC4FF48062C4F20002204640F68076E0
:103F00002A61C2F20006FEF76BFC4FF40063C4F2B4
:103F10000003304640F694752361C2F20005FEF7B7
:103F20005FFC4FF44061C4F20001284640F6A874DB
:103F3000C2F200043161FEF753FC4FF48062C4F218
:103F4000010220462A61FEF74BFC4FF48040C4F288
:103F50000100206170BD00BFAFF30080AFF30080AF
:103F6000436810B40469DA68236800F11801C06876
:103F7000D960002A14BF4FF488724FF48072024354
:103F8000012159601A6018680843186010BC704716
:103F900030B404692268136823F01F0111601568AA
:103FA000EB07FCD4257A416963680A683D2404FA6A
:103FB00005F41C60136823F01F041460136813F0E9
:103FC0000103FBD10C7A826849683D2000FA04F0B5
:103FD000086093811382938230BC7047AFF30080F6
:103FE00070B585682C88AA8840F20F13A4B22340CC
:103FF000064613B3406803694FF6FF622A80E3B1B7
:1040000004F0080188B2002814BF10210021E20743
:1040100004F0020290B248BF41F0040108B141F03F
:10402000080104F0040290B2A0B904F4807290B2C6
:1040300008B141F040013046984704F04004A4B272
:104040003CB1736859684FF6BF722A8009B1304697
:10405000884770BD41F02001E7E700BFAFF3008063
:1040600011F00C0F10B504461CD161690A68136881
:1040700023F01F0010601368DB07FCD46368087A24
:104080004A681B683D2101FA00F10220116060704E
:104090002BB1204698476278022A00D010BD002339
:1040A000637010BDFDF7BCFEDFE700BFAFF300801B
:1040B00011F00C0F10B5044623D1A3783BB9616809
:1040C000CA68EAB1238B204699B2904710BD216996
:1040D0000A68106820F01F0313601068C307FCD43F
:1040E0006368087A4A689B683D2101FA00F1022062
:1040F0001160A07043B120469847A278022A03D0ED
:1041000010BDFDF78DFED8E700232046A370BDE863
:104110001040FFF725BF00BFAFF30080AFF3008072
:1041200008B540F6BC70C2F20000FFF759FFBDE8C9
:104130000840FDF7B5BE00BFAFF30080AFF30080CD
:1041400008B540F6D870C2F20000FFF749FFBDE89D
:104150000840FDF7A5BE00BFAFF30080AFF30080BD
:1041600008B540F6F470C2F20000FFF739FFBDE871
:104170000840FDF795BE00BFAFF30080AFF30080AD
:1041800008B541F21000C2F20000FFF729FFBDE8B8
:104190000840FDF785BE00BFAFF30080AFF300809D
:1041A0002DE9F84340F6BC77C2F20007254C3846AB
:1041B00040F6D876FEF774FBC2F200064FF4805347
:1041C0004FF00608C4F2010304F11809304640F626
:1041D000F475C2F20005BB603C61C7F80C80C7F8FB
:1041E0001490FEF75DFB4FF48843A4F16001A4F145
:1041F0005402C4F20003284641F21007C2F200073D
:10420000B36031617261C6F80C80FEF749FB4FF470
:104210009043A4F19001A4F17802C4F2000338465F
:10422000AB60C5F80C8029616A61FEF739FB4FF479
:10423000A050C4F20100243CB8603C61C7F814905F
:10424000BDE8F8839C9D0008AFF30080AFF30080C9
:10425000F8B50378012B04463BD085680020A07098
:1042600060702046FFF794FE4FF48056A268C4F2B7
:104270000106B2424BD04FF4A057C4F20107BA4234
:1042800045D063684DF680605969C0F28020B0FB6C
:10429000F1F6B2B22A815F68188B598B9A8B2B8802
:1042A000AB8842F20C1642F24C13002F08BF334683
:1042B000034341F04001002042F0C102288089B24E
:1042C00092B220462982AA82AB81BDE8F840FFF76E
:1042D00047BE4948844247D048498C4261D0484A49
:1042E000944274D0474DAC4221D06668378B07F4B6
:1042F000A053B3F5805F15D020696269A568066890
:1043000017682B1D0021B360BB602183A6E763689B
:104310004FF43D475869C0F20157B7FBF0F18EB238
:104320002E81B8E7E16841F42055E560E4E74FF4F9
:1043300060560C21344A20692346C4F20206FEF777
:10434000FFFC0C21314A60692346FEF7F9FC776CCB
:1043500047F020034720C0217364FDF7F9FDE068B2
:1043600040F02061E160C0E70C21274A2069234624
:10437000FEF7E6FC0C212346244A6069FEF7E0FCC8
:104380004FF46053C4F202032520596C41F010052C
:104390005D64C021FDF7DCFDE06840F00062E26092
:1043A000A3E74FF460550C21174A20692346C4F255
:1043B0000205FEF7C5FC0C21144A60692346FEF78E
:1043C000BFFC2F6C262047F400362E64E1E74FF443
:1043D00060550C210C4A20692346C4F20205FEF701
:1043E000AFFC0A4A60690C212346FEF7A9FC2A6C3F
:1043F000272042F48026E8E7BC0F0020D80F0020D9
:10440000F40F002010100020B140000861400008A7
:104410004369C0681B6840F48A60DA6059601860BC
:104420001A6842F001011960704700BFAFF30080C5
:10443000FEF72EBDAFF30080AFF30080AFF3008036
:10444000704700BFAFF30080AFF30080AFF3008090
:10445000704700BFAFF30080AFF30080AFF3008080
:10446000202383F3118840F62003C2F200030122C7
:104470001A70002383F31188704700BFAFF30080E8
:1044800008B5034800F024F90120FDF7E1FFF8E743
:10449000DC130020AFF30080AFF30080AFF30080A7
:1044A0002DE9F043154F164D397085B081461548FA
:1044B000154EDFF85C80FEF77BF901244FF0FF30EA
:1044C000234649463A460290009501940D48FEF76E
:1044D0004FF930600B48FEF773F9336888F80040F5
:1044E0003BB10848FEF73CF908490022086088F80B
:1044F0000020287805B0BDE8F08300BF74110020CB
:10450000E8130020C00E0020F8150020F41500204C
:1045100023080020AFF30080AFF30080AFF30080EA
:10452000F0B5134C134D217085B0074612486270E8
:10453000FEF73EF9114B10480093224600264FF03B
:10454000FF343946022302940196FEF711F92860E0
:1045500009480B4CFEF734F928680122227028B173
:104560000548FEF7FDF807492670086005B0F0BD64
:1045700074110020F8150020C00E0020E813002060
:1045800023080020F4150020AFF30080AFF3008073
:104590002DE9F0411C460E469DF818801546074649
:1045A000FFF77EFF01232A1B03FA04F1D2184C1EE9
:1045B00004FA02F408FA02FC20EA04005FFA8CF81C
:1045C000C2B208EA0404384631462243BDE8F0414D
:1045D000FFF7A6BFAFF30080AFF30080AFF300801A
:1045E000F8B517461C4606460D46FFF759FF01224F
:1045F00002FA07F244B920EA0200C2B23046294664
:10460000BDE8F840FFF78CBF40EA0201CAB2F5E707
:10461000024619216820FFF783BF00BFAFF3008077
:1046200002461A216820FFF77BBF00BFAFF300806E
:1046300002466B216820FFF773BF00BFAFF3008015
:1046400000B583B01B210090042268200223FFF7ED
:104650009FFF03B000BD00BFAFF30080AFF3008049
:1046600000B583B01C210090042268200223FFF7CC
:104670008FFF03B000BD00BFAFF30080AFF3008039
:1046800003466B2168200622FFF7AABFAFF3008024
:1046900003466A2168200522FFF7A2BFAFF300801E
:1046A0000346372168200122FFF79ABFAFF300804D
:1046B00010B56B2104466820FFF7F2FE031B584239
:1046C000584110BDAFF30080AFF30080AFF300801E
:1046D0002DE9F0474FF48055CEF200050446432102
:1046E00068206E68FFF7DCFE442120706820FFF729
:1046F000D7FE452160706820FFF7D2FE4621A070EA
:104700006820FFF7CDFE4721E0706820FFF7C8FE64
:10471000482120716820FFF7C3FE3B2160716820AB
:10472000FFF7BEFE3C21A0716820FFF7B9FE3D21D6
:10473000E0716820FFF7B4FE3E2120726820FFF789
:10474000AFFE3F2160726820FFF7AAFE4021A072F1
:104750006820FFF7A5FE41F23443C2F20003E07285
:1047600094F802A0E278B3F80090B3F80280B3F8AE
:1047700004E0B3F808C05F8942EA0A224A441A807A
:1047800094F80090627842EA092242445A8094F8F0
:104790000480627942EA0822C2EB0E029A8094F801
:1047A00008E0627A0146D88842EA0E221018D880C2
:1047B000E07994F806E041F24042C2F2000240EA99
:1047C0000E2EF4441078A3F808C0A47A01301070BB
:1047D000686841EA0425791B5981FCF793FB04467C
:1047E00030460D46FCF78EFB02460B462046294616
:1047F000FCF74AFA06A3D3E90023FCF723FD41F2B4
:104800002444FCF7BDFEC2F200042060BDE8F0873E
:1048100000000000F406A441AFF30080AFF3008075
:1048200008B56B2180226820FFF77AFE6420FDF72F
:104830000FFE0320FFF7FCFE0320FFF739FFD0BB7C
:104840006B2180226820FFF76BFE6420FDF700FEDD
:104850000320FFF7EDFE0320FFF72AFF58BB6B2173
:1048600080226820FFF75CFE6420FDF7F1FD032045
:10487000FFF7DEFE0320FFF71BFFE0B96B2180226C
:104880006820FFF74DFE6420FDF7E2FD0320FFF7EF
:10489000CFFE0320FFF70CFF68B96B218022682050
:1048A000FFF73EFE6420FDF7D3FD0320FFF7C0FEB7
:1048B0000320FFF7FDFE1420FDF7CAFD6C21002246
:1048C0006820FFF72DFE0220FDF7C2FD0420FFF750
:1048D000A7FE0220FDF7BCFD0420FFF799FE022091
:1048E000FDF7B6FD0320FFF7ABFE0220FDF7B0FD9C
:1048F0000220FFF7B5FE0220FDF7AAFD0020FFF71A
:10490000BFFE0020FFF7C4FE0120BDE80840FFF70E
:10491000C7BE00BFAFF30080AFF30080AFF30080ED
:104920002DE9F04F202387B083F31188544B1D7875
:10493000002D00F09E8028460193FCF727FF0246D9
:10494000014647F64850C3F68B200292FDF72CF83B
:104950004C4CDFF840A1DFF840914B4EDFF83C8132
:104960004A4F8346B4F90200FCF714FF014658464B
:10497000FCF766FF8446B4F90400CDF80CC0FCF7E0
:1049800009FF01465846FCF75BFFDAF80010059076
:10499000B4F900000491FCF7FDFE5946FCF750FF06
:1049A0000499FCF741FEDDF80CC0DAF80410C9F8F0
:1049B000000083466046FCF737FEDAF80810C9F8B5
:1049C000040084460598CDF80CC0FCF72DFE316834
:1049D000C9F8080082465846FCF728FEDDF80C901E
:1049E000306071684846FCF721FE7060B16850463F
:1049F000FCF71CFE86460298C6F808E001464EF613
:104A00000A00C3F61C30FCF7CFFF0646B4F90800D5
:104A1000FCF7C0FE01463046FCF712FF8246B4F9AF
:104A20000A00FCF7B7FE01463046FCF709FFD8F84C
:104A300000B08146B4F90600FCF7ACFE3146FCF745
:104A4000FFFE5946FCF7F0FD3860D8F804105046D8
:104A5000FCF7EAFDD8F8081078604846FCF7E4FD5A
:104A60000B4BB8601D70019900220A7022606260D1
:104A7000A260002383F3118807B0BDE8F08F00BF68
:104A80004014002034140020441400201814002086
:104A9000FC130020001400200C1400202814002017
:104AA00041F20C43C2F2000310B459681C689B68C1
:104AB00004604160836010BC704700BFAFF30080AA
:104AC00041F21843C2F2000310B459681C689B6895
:104AD00004604160836010BC704700BFAFF300808A
:104AE00041F24443C2F2000310B4044693E80700C5
:104AF00084E80700204610BC704700BFAFF3008079
:104B000008B541F2FC33C2F200031878FCF70AFA48
:104B100003A3D3E90023FCF76BFAFCF731FD08BDD2
:104B20004DDBBFB2D2A4543FAFF30080AFF300809F
:104B30002DE9F04FABB00CA8059000F041FA0A2027
:104B4000FDF786FCFFF7ECFE0A20FDF781FCFFF77E
:104B5000E7FE0A20FDF77CFCFFF7E2FE0A20FDF7E6
:104B600077FCFFF7DDFE0A20FDF772FCDFF8E48139
:104B7000FFF7D6FE00230DF1600E21A807934FF03A
:104B8000010A12AC1BAD27AF08AE0DF15409CDF8E8
:104B900018E00490204600F013FA4FF0320BFFF7B4
:104BA000BFFED8F80010D8F80420D8F808302791B4
:104BB0002892299397E8070085E807008DE8070009
:104BC000304694E80E0000F0F3F896E8070084E819
:104BD00007000A20FDF73CFCFFF7A2FED8F8000012
:104BE000D8F80410D8F8082027902891299297E83F
:104BF000070085E807008DE80700304694E80E00BE
:104C000000F0D6F896E807000BF1FF3B5FFA8BFB4C
:104C100084E807000A20FDF71BFC0BF1FF3313F0BB
:104C2000FF0BBCD14FF0000CC4F2482C94E80E00EE
:104C30004846CDF800C000F03BFA99E807008DE83F
:104C40000700059890E80E0018A800F0D1F8069922
:104C500007C900F0FDF9BAF1010F83460CD199E8BC
:104C60000700CDF81CB0DDF814B08BE807000AF19E
:104C7000010A1FFA8AFA8DE7DDF818E09EE80700BE
:104C800000F0E6F9FCF760F92FA3D3E90023FCF765
:104C900027FC80B958460799FCF770FF00282CD1F3
:104CA00099E80700059BBAF1150F83E80700DED1EC
:104CB0002BB0BDE8F08F4FF07C551EAC99E80E008C
:104CC0002046009500F01CF9059890E80E00384643
:104CD000009500F015F997E807008DE807003046C9
:104CE00094E80E0000F064F896E80700059B83E85E
:104CF0000700174B83E80700DAE74FF07C5E99E87E
:104D00000E000DF1900CCDF800E021A8CDF81CC0EC
:104D100000F0F6F8059A4FF07C5C0ECA24A8CDF896
:104D200000C000F0EDF8079BDDF810E093E8070005
:104D30008DE807000FA89EE80E0000F039F8CDF8C6
:104D40001CB0ADE7AFF300802242ABF5BA945C3FF4
:104D5000001400200C140020AFF30080AFF300809B
:104D600010B5044602F014FEB0B120464FF07E515B
:104D7000FCF718FF20B140F6DB70C3F6C97010BD18
:104D800000212046CBF68071FCF702FF30B92046A7
:104D9000BDE8104002F0C4BE002010BD40F6DB703C
:104DA000CBF6C97010BD00BFAFF30080AFF3008039
:104DB00010B584B004AC04E90E00019B06990446CA
:104DC0001846FCF733FC206002980799FCF72EFC8C
:104DD000606003980899FCF729FCA060204604B0A5
:104DE00010BD00BFAFF30080AFF30080AFF30080D1
:104DF00010B584B004AC04E90E00019B069904468A
:104E00001846FCF711FC206002980799FCF70CFC8F
:104E1000606003980899FCF707FCA060204604B086
:104E200010BD00BFAFF30080AFF30080AFF3008090
:104E300082B02DE9F04184B004AC04E907000B9383
:104E400001980B99DDF808800C9F039E0D9DFCF7DF
:104E5000F7FC394604464046FCF7F2FC0146204682
:104E6000FCF7E4FB294604463046FCF7E9FC014622
:104E70002046FCF7DBFB04B0BDE8F04102B0704710
:104E8000F0B585B004AC04E90E00029B0C99039FB9
:104E90000B9E04461846FCF7D3FC314605463846BF
:104EA000FCF7CEFC01462846FCF7BEFB20600398C9
:104EB0000A99019F0C9EFCF7C3FC31460546384613
:104EC000FCF7BEFC01462846FCF7AEFB606001988B
:104ED0000B99029F0A9EFCF7B3FC31460546384603
:104EE000FCF7AEFC01462846FCF79EFBA06020467E
:104EF00005B0F0BDAFF30080AFF30080AFF30080EA
:104F000030B585B004AC04E90E00089D019B044651
:104F100029461846FCF794FC206002982946FCF7C5
:104F20008FFC606003982946FCF78AFCA06020464D
:104F300005B030BDAFF30080AFF30080AFF3008069
:104F400000B585B004AB03E90700019802F020FD2D
:104F500010B9012005B000BD029802F019FD00282B
:104F6000F7D0039802F014FDD0F1010038BF002003
:104F7000F0E700BFAFF30080AFF30080AFF3008035
:104F800000B585B004AB03E90700019802F000FD0D
:104F900001280BD0029802F0FBFC012806D00398F0
:104FA00002F0F6FC411E4842484100E0012005B0F5
:104FB00000BD00BFAFF30080AFF30080AFF300800F
:104FC0000023836043600360704700BFAFF300803D
:104FD00000B585B004AB03E9070000210198FCF798
:104FE000C3FD58B102980021FCF7BEFD30B100218D
:104FF0000398FCF7B9FD012110B1C8B205B000BD9E
:105000000146C8B2FAE700BFAFF30080AFF30080FB
:1050100070B50C4601461546FCF712FC21460646C3
:105020002046FCF70DFC01463046FCF7FFFA294606
:1050300004462846FCF704FC01462046FCF7F6FA35
:10504000BDE8704002F024BEAFF30080AFF30080F3
:1050500084B004AB03E9070001980299039A04B0F5
:10506000FFF7D6BFAFF30080AFF30080AFF300804F
:1050700030B5044607C885B004AB03E907000198C2
:105080000299039AFFF7C4FF054629462068FCF7FA
:105090008BFC206060682946FCF786FC6060A06895
:1050A0002946FCF781FCA06005B030BDAFF300805D
:1050B00030B585B004AC04E90E00089D019B0446A0
:1050C00029461846FCF770FC206002982946FCF738
:1050D0006BFC606003982946FCF766FCA0602046E4
:1050E00005B030BDAFF30080AFF30080AFF30080B8
:1050F00070B505460C46164602F04AFC70B12846CB
:105100002146FCF73BFD08B1204670BD28463146DC
:10511000FCF752FD68B13446204670BD314620464A
:10512000FCF784FA4FF07C51FCF78AFB04462046DA
:1051300070BD2C46204670BDAFF30080AFF30080F9
:1051400038B50D460146FCF77BFB29460446284648
:10515000FCF776FB01462046FCF768FABDE83840CC
:1051600002F096BDAFF30080AFF30080AFF3008094
:1051700038B5416804460068FFF7E2FF014605467E
:105180002068FCF711FC294620606068FCF70CFCE5
:10519000606038BDAFF30080AFF30080AFF30080F4
:1051A00000B583B002AB03E90300009802F0F0FB06
:1051B000012805D0019802F0EBFB411E484248410E
:1051C00003B000BDAFF30080AFF30080AFF3008009
:1051D00030B585B004AD05E903008DE80C000298F8
:1051E0000199FCF72DFB009904460398FCF728FB76
:1051F00001462046FCF718FA05B030BDAFF3008039
:105200002DE9F04F044683B010461D4690460E46E9
:1052100002F086FB0746404602F0EAFB8246304633
:1052200002F0E6FB8146304602F07AFB80462846D3
:1052300002F0DEFB0646284602F072FB05462946D0
:105240003846FCF7FDFA514620604846FCF7F8FA6C
:1052500029460090FCF7F4FA314683464046FCF7B5
:10526000EFFA01465846FCF7DFF9514660604046C8
:10527000FCF7E6FA29468346FCF7E2FA3146024695
:1052800048460192FCF7DCFA01460198FCF7CEF99A
:105290003146A0603846FCF7D3FA0099E06030460A
:1052A000FCF7CEFA2946034640460093FCF7C8FABD
:1052B000009A01461046FCF7B9F95946206130467C
:1052C000FCF7BEFA294606464846FCF7B9FA0146FD
:1052D0003046FCF7A9F90AF1004A60613946C4F882
:1052E00018A04846FCF7ACFA3946E0614046FCF7A6
:1052F000A7FA206203B0BDE8F08F00BFAFF30080D3
:1053000084B0F8B5109E0F9D119C06AF87E80F0082
:105310002EB10C98FFF724FD00F10040306025B15C
:105320000D980E9902F04CFC286024B1099806995A
:1053300002F046FC2060BDE8F84004B0704700BFB2
:105340002DE9F04184B004AC04E90E000568044680
:1053500040680399D4F80880029FFCF771FA394637
:1053600006464046FCF76CFA01463046FCF75CF90D
:1053700001462846FCF75AF920606568A068019943
:10538000D4F80080039FFCF75BFA39460646404696
:10539000FCF756FA01463046FCF746F90146284626
:1053A000FCF744F96060A56820680299D4F804808D
:1053B000019FFCF745FA394606464046FCF740FA9D
:1053C00001463046FCF730F901462846FCF72EF935
:1053D000A060E56820690399D4F81480029FFCF767
:1053E0002FFA394606464046FCF72AFA014630466F
:1053F000FCF71AF901462846FCF718F9E060256920
:1054000060690199D4F80C80039FFCF719FA3946BA
:1054100006464046FCF714FA01463046FCF704F90C
:1054200001462846FCF702F920616569E0680299A7
:10543000D4F81080019FFCF703FA3946064640462F
:10544000FCF7FEF901463046FCF7EEF80146284627
:10545000FCF7ECF86061A569E0690399D4F8208055
:10546000029FFCF7EDF9394606464046FCF7E8F99D
:1054700001463046FCF7D8F801462846FCF7D6F836
:10548000A061E569206A0199D4F81880039FFCF7B0
:10549000D7F9394606464046FCF7D2F90146304670
:1054A000FCF7C2F801462846FCF7C0F8E061256A1F
:1054B000A0690299D4F81C80019FFCF7C1F9394614
:1054C00006464046FCF7BCF901463046FCF7ACF80E
:1054D00001462846FCF7AAF8206204B0BDE8F08136
:1054E00084B02DE9F84309AC84E80E00099B1299B9
:1054F000DDF82890DDF84C800B9F149E044618467A
:10550000FCF79EF9414605464846FCF799F90146E5
:105510002846FCF78BF8314605463846FCF790F9EB
:1055200001462846FCF782F820600C981299DDF8B5
:105530003490DDF84C800E9F149EFCF781F94146B3
:1055400005464846FCF77CF901462846FCF76EF80C
:10555000314605463846FCF773F901462846FCF704
:1055600065F860600F981299DDF84090DDF84C8086
:10557000119F149EFCF764F9414605464846FCF726
:105580005FF901462846FCF751F831460546384692
:10559000FCF756F901462846FCF748F8A06020467B
:1055A000BDE8F84304B07047AFF30080AFF300806C
:1055B00084B02DE9F04F85B00FAC84E80E000F9B4E
:1055C0001899DDF840C0199ADDF844B0DDF868A0FC
:1055D000DDF84880DDF86090139F199E149D1A9C99
:1055E0000192039404461846CDF808C0FCF728F948
:1055F000DDF808C00199034660460293FCF720F9E4
:1056000001460298FCF712F85146024658460292AB
:10561000FCF716F9029B01461846FCF707F84946C5
:1056200020604046FCF70CF9314680463846FCF7CE
:1056300007F901464046FBF7F9FF0399064628465D
:10564000FCF7FEF801463046FBF7F0FF60602046AD
:1056500005B0BDE8F04F04B0704700BFAFF3008065
:1056600084B02DE9F84309AC84E80E00099B129937
:10567000DDF83090DDF84C800F9F149E04461846EC
:10568000FCF7DEF8414605464846FCF7D9F80146E6
:105690002846FBF7CBFF314605463846FCF7D0F8E5
:1056A00001462846FBF7C2FF20600A981299DDF8F0
:1056B0003490DDF84C80109F149EFCF7C1F84146F1
:1056C00005464846FCF7BCF801462846FBF7AEFF06
:1056D000314605463846FCF7B3F801462846FBF745
:1056E000A5FF60600B981299DDF83890DDF84C80CA
:1056F000119F149EFCF7A4F8414605464846FCF766
:105700009FF801462846FBF791FF3146054638468B
:10571000FCF796F801462846FBF788FFA060204674
:10572000BDE8F84304B07047AFF30080AFF30080EA
:1057300084B010B402AC84E80E00029A02600599AD
:105740004160089A826010BC04B07047AFF30080DB
:1057500084B010B502AC84E80F0094E80700FFF7AE
:10576000EFFB20B10120BDE8104004B0704705AB4D
:1057700093E80700FFF7E4FB0028F3D108A807C867
:10578000BDE8104004B0FFF7DBBB00BFAFF3008003
:1057900000234FF07E520262026102608360436028
:1057A0004361C360C3618361704700BFAFF3008092
:1057B000F0B541F2C84493B0C2F2000404AD07460C
:1057C0002046FFF7FDFB2846FFF76AF995E807003A
:1057D00041F21453C2F2000384E8070093E8070083
:1057E0008DE8070094E80E002846FFF7E1FA95E8F7
:1057F000070041F25C46C2F2000684E8070096E822
:1058000007008DE8070041F22C5309ADC2F20003F6
:105810000ECB2846FFF7CCFA95E807000CAE8DE8D2
:1058200007000FAD304694E80E00FFF7C1FA96E886
:105830000E0028460097FFF763FB41F25450C2F276
:10584000000095E80E00FFF77BFD13B0F0BD00BF30
:1058500070B504461648FFF7B3FB1648FFF7B0FBD8
:105860001548FFF7ADFB1548FFF7AAFB24B1144C10
:10587000206802F08DF838B9002112480A460B461C
:10588000BDE87040FFF7BCBC0F4D286802F080F8FF
:105890000028F1D00D4E306802F07AF80028EBD0E5
:1058A000084821682A683368BDE87040FFF7A8BC43
:1058B000141500202C1500205C140020C8140020B2
:1058C000A814002054150020501500202015002099
:1058D0002DE9F04F41F25847A7B0C2F200070297F6
:1058E00041F24457C2F20007019741F22857C2F231
:1058F0000007039741F25447C2F20007049741F2B0
:105900001057C2F20007059741F2C447C2F20007E0
:10591000069741F29847C2F20007079741F28C4779
:10592000C2F20007089741F2D447C2F20007099774
:1059300041F2B047C2F200070A9741F24857C2F25B
:1059400000070B9741F27857C2F200070C9741F21B
:105950004C57C2F200070D97029F4FF00008C7F89E
:105960000080019FC7F80080039F00233B80049FB5
:10597000C7F80080059F3B60069FC7F80080079F1F
:1059800041F2245B41F2884A41F20C5941F27C5CBD
:1059900041F2D84EC2F2000CC2F2000E3B60C2F2DD
:1059A000000B089FACF80030C2F2000AC2F20009F6
:1059B00040F6240241F27446C2F20002C2F200062E
:1059C00041F2AC4541F27C44CEF80080A9F80030A9
:1059D000C2F20005C2F20004CBF80080CAF80080D1
:1059E000C7F80080099FC2F80080C2F80480C6F89A
:1059F00000800022002641F2B44041F28441C2F20C
:105A000000013A70C5F800800A9A0B9F26700C9D21
:105A10000D9C1360C2F200003B6003602B602360AA
:105A2000C1F80080FEF77CFF11A8FFF749F8129F2C
:105A300014A8FFF745F816993846FBF7B5FFFBF7B2
:105A400083FA01F055FDFBF79BFD41F2A841C2F23C
:105A5000000141F25056086017A8FFF731F81AA864
:105A6000179FFFF72DF81B9D1DA8FFF729F81E991A
:105A70002846FBF7E5FE044620A8FFF721F8229D03
:105A800023A8FFF71DF825992846FBF7D9FE014604
:105A90002046FBF7CBFDFBF757FA01F0E9FF044680
:105AA0000D463846FBF750FA22462B46FBF7CAFB59
:105AB00001F01EFDFBF764FDC2F2000641F2205327
:105AC00041F25454C2F20003C2F200043060204696
:105AD000C3F80080FFF75CFE41F27840C2F200009C
